:060000000A128A11FC2F18
:100A76000730F6000D300A128A11A0250A128A11D3
:100A8600263083120313B2003230A000A101A10A5E
:100A96003230A2003630A3000C300A128A11A22688
:100AA6000A128A1183120313B400B5013408031D18
:100AB6005D2D5E2D672D103036063704031D642D1F
:100AC600652D672D0130B50035080800F100F301EA
:100AD6008312031307107108F00070077E398038FF
:100AE600F200F4018711F21B792D7D2D8312031379
:100AF6008716802D8312031387120310F20D8715B4
:100B06000130F40708307402031C8A2D8B2D752DD5
:100B1600F501871187150310F30D071E932D942DEC
:100B2600952D73140130F50708307502031C9C2DB2
:100B36009D2D8C2D071473080800F80083120313EB
:100B460007107808F7007707F9007E30F905FA01F3
:100B56008711F91BAF2DB32D831203138716B62DFC
:100B66008312031387120310F90D87150130FA0754
:100B760008307A02031CC02DC12DAB2DFB01871155
:100B8600F61BC62DCA2D831203138716CD2D83128D
:100B9600031387120310F60D87150130FB07083083
:100BA6007B02031CD72DD82DC22D071408000A126C
:100BB6008A1117260A128A11831603130612861241
:100BC60083120313061286120A128A113B250A1291
:100BD6008A1183120313BB003B080319F32DF42D6E
:100BE600062E061686121A3083120313BA005E30DA
:100BF600B9006D30B800B80BFE2DB90BFE2DBA0B3F
:100C0600FE2D052E082E061286164130831203137A
:100C1600B900ED30B800B80B0E2EB90B0E2E132E00
:100C2600E72D0A128A11002883160313071087116D
:100C36008712071686118312031386114130FD00B1
:100C4600EE30FC00FC0B252EFD0B252E000083123A
:100C5600031386154130FD00EE30FC00FC0B312EEF
:100C6600FD0B312E00000F30F60001300A128A11FA
:100C7600A0250A128A114130FD00EE30FC00FC0B63
:100C8600422EFD0B422E0000502E0730FD007D3017
:100C9600FC00FC0B4C2EFD0B4C2E01300A128A1167
:100CA60069250A128A111039031D5A2E5B2E482E09
:100CB6008D30F6002A300A128A11A0250A128A11EE
:100CC6003E30F6002B300A128A11A0250A128A112C
:100CD6001E30F6002D300A128A11A0250A128A113A
:100CE600F6012C300A128A11A0250A128A11403008
:100CF600F60015300A128A11A0250A128A113D3013
:100D0600F60011300A128A11A0250A128A1114302F
:100D16000A128A1169250A128A110338F60014305C
:100D26000A128A11A0250A128A114130FD00EE30FE
:100D3600FC00FC0B9C2EFD0B9C2E00000800831271
:100D46000313AE000130AA00AB01AC010C302E0635
:100D5600031DAE2EAF2EB32E7730AB003030AC0075
:100D66002B088038F60002300A128A11A0250A12D2
:100D76008A117F30F60004300A128A11A0250A1261
:100D86008A118030F6000A300A128A11A0250A124A
:100D96008A11F60101300A128A11A0250A128A1157
:100DA60083120313B001B101EE2E30082007A40010
:100DB6002408840083130008F60009300A128A11F9
:100DC600A0250A128A11013083120313B0070318F3
:100DD600B10A0030B1072108A400A5012508310297
:100DE600031DF72E24083002031CFA2EFB2ED82EE4
:100DF6002E08F60001300A128A11A0250A128A115D
:100E06000C30831203132E06031D0A2F0B2F192FE6
:100E16000D300A128A1169250A128A118038F600E5
:100E26000D300A128A11A0250A128A11E83083129F
:100E36000313B0000330B100462F04300A128A11A2
:100E460069250A128A1183120313AF002F082C0595
:100E560003192E2F2F2F302F4E2F2F1C332F342FC9
:100E6600352F4E2F0130B0020030031CB103B10202
:100E7600073083120313A5007C30A400A40B412F76
:100E8600A50B412F00008312031330083104031D04
:100E96004D2F4E2F202F0D300A128A1169250A1266
:100EA6008A11F6007F30F6050D300A128A11A02548
:100EB6000A128A1183120313300831040319642FAE
:100EC600652FF82F06300A128A1169250A128A112F
:100ED6001B39031D6F2F702FF82F83120313AA01DE
:100EE6000C302E06031D782F792FF82F0A300A12A0
:100EF6008A1169250A128A1183120313AF000C3076
:100F06000A128A1169250A128A1183120313AD0087
:100F16000730AD052D080319912F922FB72F2F08F3
:100F2600A400A5010310A40DA50D0310A40DA50D85
:100F36000310A40DA50D2D082407A60000300318E4
:100F460001302507A7002608F83EA8002708031841
:100F5600013EFF3EA9002308840028088313800071
:100F6600840A29088000CB2F2F08A400A5010310AE
:100F7600A40DA50D0310A40DA50D0310A40DA50D1C
:100F860023088400240883138000840A250880002F
:100F960011302F02031CD02FD12FD32F1030AF00CA
:100FA600B001B101EB2F30082207A4002408840009
:100FB60009300A128A1169250A128A1183138000E0
:100FC600013083120313B0070318B10A0030B107CA
:100FD6002F08A400A50125083102031DF42F2408BB
:100FE6003002031CF72FF82FD62F831203132A087B
:0A0FF600080083010A128A11DA2DA7
:02400E003A3F37
:00000001FF
